{
  "contractName": "Auction",
  "abi": [
    {
      "inputs": [],
      "stateMutability": "nonpayable",
      "type": "constructor"
    },
    {
      "anonymous": false,
      "inputs": [
        {
          "indexed": true,
          "internalType": "address",
          "name": "_highestBidder",
          "type": "address"
        },
        {
          "indexed": false,
          "internalType": "uint256",
          "name": "_highestBid",
          "type": "uint256"
        }
      ],
      "name": "LogBid",
      "type": "event"
    },
    {
      "anonymous": false,
      "inputs": [
        {
          "indexed": true,
          "internalType": "address",
          "name": "_withdrawer",
          "type": "address"
        },
        {
          "indexed": false,
          "internalType": "uint256",
          "name": "amount",
          "type": "uint256"
        }
      ],
      "name": "LogWithdrawal",
      "type": "event"
    },
    {
      "inputs": [
        {
          "internalType": "address",
          "name": "",
          "type": "address"
        }
      ],
      "name": "bids",
      "outputs": [
        {
          "internalType": "uint256",
          "name": "",
          "type": "uint256"
        }
      ],
      "stateMutability": "view",
      "type": "function"
    },
    {
      "inputs": [],
      "name": "endTime",
      "outputs": [
        {
          "internalType": "uint256",
          "name": "",
          "type": "uint256"
        }
      ],
      "stateMutability": "view",
      "type": "function"
    },
    {
      "inputs": [],
      "name": "highestBid",
      "outputs": [
        {
          "internalType": "uint256",
          "name": "bidAmount",
          "type": "uint256"
        },
        {
          "internalType": "address",
          "name": "bidder",
          "type": "address"
        }
      ],
      "stateMutability": "view",
      "type": "function"
    },
    {
      "inputs": [],
      "name": "startTime",
      "outputs": [
        {
          "internalType": "uint256",
          "name": "",
          "type": "uint256"
        }
      ],
      "stateMutability": "view",
      "type": "function"
    },
    {
      "inputs": [],
      "name": "makeBid",
      "outputs": [
        {
          "internalType": "bool",
          "name": "",
          "type": "bool"
        }
      ],
      "stateMutability": "payable",
      "type": "function"
    },
    {
      "inputs": [],
      "name": "withdraw",
      "outputs": [
        {
          "internalType": "bool",
          "name": "",
          "type": "bool"
        }
      ],
      "stateMutability": "nonpayable",
      "type": "function"
    },
    {
      "inputs": [],
      "name": "fetchHighestBid",
      "outputs": [
        {
          "components": [
            {
              "internalType": "uint256",
              "name": "bidAmount",
              "type": "uint256"
            },
            {
              "internalType": "address",
              "name": "bidder",
              "type": "address"
            }
          ],
          "internalType": "struct Auction.HighestBid",
          "name": "",
          "type": "tuple"
        }
      ],
      "stateMutability": "view",
      "type": "function"
    },
    {
      "inputs": [],
      "name": "getOwner",
      "outputs": [
        {
          "internalType": "address",
          "name": "",
          "type": "address"
        }
      ],
      "stateMutability": "view",
      "type": "function"
    }
  ],
  "bytecode": "0x608060405234801561001057600080fd5b50336000806101000a81548173ffffffffffffffffffffffffffffffffffffffff021916908373ffffffffffffffffffffffffffffffffffffffff1602179055504260018190555060784261006591906100a9565b6002819055506100dd565b6000819050919050565b7f4e487b7100000000000000000000000000000000000000000000000000000000600052601160045260246000fd5b60006100b482610070565b91506100bf83610070565b92508282019050808211156100d7576100d661007a565b5b92915050565b610cb7806100ec6000396000f3fe60806040526004361061007b5760003560e01c8063893d20e81161004e578063893d20e81461013e578063d57bde7914610169578063f30e365814610195578063f373c463146101b35761007b565b80633197cbb6146100805780633ccfd60b146100ab57806362ea82db146100d657806378e9792514610113575b600080fd5b34801561008c57600080fd5b506100956101de565b6040516100a29190610855565b60405180910390f35b3480156100b757600080fd5b506100c06101e4565b6040516100cd919061088b565b60405180910390f35b3480156100e257600080fd5b506100fd60048036038101906100f89190610909565b6104c1565b60405161010a9190610855565b60405180910390f35b34801561011f57600080fd5b506101286104d9565b6040516101359190610855565b60405180910390f35b34801561014a57600080fd5b506101536104df565b6040516101609190610945565b60405180910390f35b34801561017557600080fd5b5061017e610508565b60405161018c929190610960565b60405180910390f35b61019d61053a565b6040516101aa919061088b565b60405180910390f35b3480156101bf57600080fd5b506101c861078c565b6040516101d591906109d6565b60405180910390f35b60025481565b600060025442101561022b576040517f08c379a000000000000000000000000000000000000000000000000000000000815260040161022290610a4e565b60405180910390fd5b600460010160009054906101000a900473ffffffffffffffffffffffffffffffffffffffff1673ffffffffffffffffffffffffffffffffffffffff163373ffffffffffffffffffffffffffffffffffffffff16036102be576040517f08c379a00000000000000000000000000000000000000000000000000000000081526004016102b590610aba565b60405180910390fd5b60008054906101000a900473ffffffffffffffffffffffffffffffffffffffff1673ffffffffffffffffffffffffffffffffffffffff163373ffffffffffffffffffffffffffffffffffffffff16148061035757506000600360003373ffffffffffffffffffffffffffffffffffffffff1673ffffffffffffffffffffffffffffffffffffffff16815260200190815260200160002054115b61036057600080fd5b60008060008054906101000a900473ffffffffffffffffffffffffffffffffffffffff1673ffffffffffffffffffffffffffffffffffffffff163373ffffffffffffffffffffffffffffffffffffffff16036103e65760008054906101000a900473ffffffffffffffffffffffffffffffffffffffff169150600460000154905061042c565b339150600360003373ffffffffffffffffffffffffffffffffffffffff1673ffffffffffffffffffffffffffffffffffffffff1681526020019081526020016000205490505b6000600360003373ffffffffffffffffffffffffffffffffffffffff1673ffffffffffffffffffffffffffffffffffffffff168152602001908152602001600020819055508173ffffffffffffffffffffffffffffffffffffffff166108fc829081150290604051600060405180830381858888f193505050501580156104b7573d6000803e3d6000fd5b5060019250505090565b60036020528060005260406000206000915090505481565b60015481565b60008060009054906101000a900473ffffffffffffffffffffffffffffffffffffffff16905090565b60048060000154908060010160009054906101000a900473ffffffffffffffffffffffffffffffffffffffff16905082565b60006002544210610580576040517f08c379a000000000000000000000000000000000000000000000000000000000815260040161057790610b26565b60405180910390fd5b60008054906101000a900473ffffffffffffffffffffffffffffffffffffffff1673ffffffffffffffffffffffffffffffffffffffff163373ffffffffffffffffffffffffffffffffffffffff160361060e576040517f08c379a000000000000000000000000000000000000000000000000000000000815260040161060590610b92565b60405180910390fd5b600034600360003373ffffffffffffffffffffffffffffffffffffffff1673ffffffffffffffffffffffffffffffffffffffff1681526020019081526020016000205461065b9190610be1565b905060046000015481116106a4576040517f08c379a000000000000000000000000000000000000000000000000000000000815260040161069b90610c61565b60405180910390fd5b33600460010160006101000a81548173ffffffffffffffffffffffffffffffffffffffff021916908373ffffffffffffffffffffffffffffffffffffffff1602179055508060046000018190555080600360003373ffffffffffffffffffffffffffffffffffffffff1673ffffffffffffffffffffffffffffffffffffffff168152602001908152602001600020819055503373ffffffffffffffffffffffffffffffffffffffff167f5331b3a4532c2507900f549683f076c051f92222c177b52f82f140d8667d3ebf8260405161077c9190610855565b60405180910390a2600191505090565b61079461080c565b60006004604051806040016040529081600082015481526020016001820160009054906101000a900473ffffffffffffffffffffffffffffffffffffffff1673ffffffffffffffffffffffffffffffffffffffff1673ffffffffffffffffffffffffffffffffffffffff168152505090508091505090565b604051806040016040528060008152602001600073ffffffffffffffffffffffffffffffffffffffff1681525090565b6000819050919050565b61084f8161083c565b82525050565b600060208201905061086a6000830184610846565b92915050565b60008115159050919050565b61088581610870565b82525050565b60006020820190506108a0600083018461087c565b92915050565b600080fd5b600073ffffffffffffffffffffffffffffffffffffffff82169050919050565b60006108d6826108ab565b9050919050565b6108e6816108cb565b81146108f157600080fd5b50565b600081359050610903816108dd565b92915050565b60006020828403121561091f5761091e6108a6565b5b600061092d848285016108f4565b91505092915050565b61093f816108cb565b82525050565b600060208201905061095a6000830184610936565b92915050565b60006040820190506109756000830185610846565b6109826020830184610936565b9392505050565b6109928161083c565b82525050565b6109a1816108cb565b82525050565b6040820160008201516109bd6000850182610989565b5060208201516109d06020850182610998565b50505050565b60006040820190506109eb60008301846109a7565b92915050565b600082825260208201905092915050565b7f546869732061756374696f6e206973207374696c6c206f70656e2e0000000000600082015250565b6000610a38601b836109f1565b9150610a4382610a02565b602082019050919050565b60006020820190508181036000830152610a6781610a2b565b9050919050565b7f48696768657374206269646465722063616e206e6f742077697468647261772e600082015250565b6000610aa46020836109f1565b9150610aaf82610a6e565b602082019050919050565b60006020820190508181036000830152610ad381610a97565b9050919050565b7f546869732061756374696f6e20697320636c6f7365642e000000000000000000600082015250565b6000610b106017836109f1565b9150610b1b82610ada565b602082019050919050565b60006020820190508181036000830152610b3f81610b03565b9050919050565b7f4f776e6572206973206e6f7420616c6c6f77656420746f206269642e00000000600082015250565b6000610b7c601c836109f1565b9150610b8782610b46565b602082019050919050565b60006020820190508181036000830152610bab81610b6f565b9050919050565b7f4e487b7100000000000000000000000000000000000000000000000000000000600052601160045260246000fd5b6000610bec8261083c565b9150610bf78361083c565b9250828201905080821115610c0f57610c0e610bb2565b5b92915050565b7f426964206572726f723a204d616b65206120686967686572204269642e000000600082015250565b6000610c4b601d836109f1565b9150610c5682610c15565b602082019050919050565b60006020820190508181036000830152610c7a81610c3e565b905091905056fea26469706673582212200bc5b9914e6d05e17004d7f6c4d403b53b41e930ee88ff713780edc708dc51dd64736f6c63430008110033",
  "immutableReferences": {},
  "source": "// SPDX-License-Identifier: MIT\r\npragma solidity >=0.7.0 <0.9.0;\r\n\r\ncontract Auction {\r\n  address private owner;\r\n  uint256 public startTime;\r\n  uint256 public endTime;\r\n\r\n\r\n  mapping(address => uint256) public bids;\r\n\r\n\r\n  struct HighestBid {\r\n    uint256 bidAmount;\r\n    address bidder;\r\n  }\r\n\r\n\r\n  HighestBid public highestBid;\r\n\r\n\r\n  event LogBid(address indexed _highestBidder, uint256 _highestBid);\r\n  event LogWithdrawal(address indexed _withdrawer, uint256 amount);\r\n\r\n\r\n  constructor () {\r\n    owner = msg.sender;\r\n    startTime = block.timestamp;\r\n    endTime = block.timestamp +  2 minutes;\r\n  }\r\n\r\n\r\n  function makeBid() public payable isOngoing() notOwner() returns (bool) {\r\n   uint256 bidAmount = bids[msg.sender] + msg.value;\r\n   require(bidAmount > highestBid.bidAmount, 'Bid error: Make a higher Bid.');\r\n\r\n   highestBid.bidder = msg.sender;\r\n   highestBid.bidAmount = bidAmount;\r\n   bids[msg.sender] = bidAmount;\r\n   emit LogBid(msg.sender, bidAmount);\r\n   return true;\r\n }\r\n\r\n  function withdraw() public notOngoing() notHighestBidder() returns (bool) {\r\n    require(msg.sender == owner || bids[msg.sender] > 0);\r\n\r\n    address payable recipiant;\r\n    uint256 value;\r\n\r\n    if(msg.sender == owner){\r\n      recipiant = payable(owner);\r\n      value = highestBid.bidAmount;\r\n    }\r\n    else {\r\n      recipiant = payable (msg.sender);\r\n      value = bids[msg.sender];\r\n    }\r\n\r\n    bids[msg.sender] = 0;\r\n    recipiant.transfer(value);\r\n    return true;\r\n }\r\n\r\n\r\n function fetchHighestBid() public view returns (HighestBid memory) {\r\n   HighestBid memory _highestBid = highestBid;\r\n   return _highestBid;\r\n }\r\n\r\n function getOwner() public view returns (address) {\r\n   return owner;\r\n }\r\n\r\n\r\nmodifier isOngoing() {\r\n   require(block.timestamp < endTime, 'This auction is closed.');\r\n   _;\r\n }\r\n modifier notOngoing() {\r\n   require(block.timestamp >= endTime, 'This auction is still open.');\r\n   _;\r\n }\r\n  modifier notHighestBidder() {\r\n   require(msg.sender != highestBid.bidder, 'Highest bidder can not withdraw.');\r\n   _;\r\n }\r\n modifier isOwner() {\r\n   require(msg.sender == owner, 'Only owner can perform task.');\r\n   _;\r\n }\r\n modifier notOwner() {\r\n   require(msg.sender != owner, 'Owner is not allowed to bid.');\r\n   _;\r\n }\r\n\r\n}",
  "sourcePath": "C:\\Users\\Tomas Jonauskas\\Desktop\\auction2\\contracts\\Auction.sol",
  "compiler": {
    "name": "solc",
    "version": "0.8.17+commit.8df45f5f.Emscripten.clang"
  },
  "schemaVersion": "3.4.11",
  "updatedAt": "2022-12-14T00:16:22.119Z",
  "devdoc": {
    "kind": "dev",
    "methods": {},
    "version": 1
  },
  "userdoc": {
    "kind": "user",
    "methods": {},
    "version": 1
  }
}